:100000000C94C6070C940D080C940D080C948209EE
:100010000C940D080C940D080C940D080C940D080C
:100020000C940D080C940D080C9411280C94E328E2
:100030000C941D210C940D080C940D080C940D08C3
:100040000C940D080C940D080C940D080C940D08DC
:100050000C940D080C9485210C940D080C940D083B
:100060000C940D080C940D080C940D080C940D08BC
:100070000C940D080C940D080C940D080C940D08AC
:100080000C940D080C940D080C940D080C940D089C
:100090000C9467080C940D080C940D080C940D0832
:1000A0000C940D080C940D080C940D088F119111EF
:1000B0009C1193119511971199119B119E11A011EB
:1000C000A211AD11A411A611A811AA11AC11AF1162
:1000D00065176517971797174519D51745194519C6
:1000E00017184519C418C4183519451945193E196A
:1000F000D118D118D118D118D118D118D118D118B8
:10010000D118D118D118D118D118D118D118D118A7
:10011000E218F018F718FE180819CC19CC19DE19D6
:10012000DE19D519DE19DE19DE19CC19CC19DA1948
:10013000DE19DE19DA1950297729692A7729692AFF
:10014000C329E629692A3C2A4B2A00000000000046
:100150003E5B4F5B3E003E6B4F6B3E001C3E7C3E69
:100160001C00183C7E3C18001C577D571C001C5E70
:100170007F5E1C0000183C180000FFE7C3E7FF008B
:10018000001824180000FFE7DBE7FF0030483A06BC
:100190000E00262979292600407F05050700407FAB
:1001A00005253F005A3CE73C5A007F3E1C1C0800D6
:1001B000081C1C3E7F0014227F2214005F5F005F3A
:1001C0005F0006097F017F00006689956A00606014
:1001D0006060600094A2FFA2940008047E040800FE
:1001E00010207E20100008082A1C0800081C2A087D
:1001F00008001E10101010000C1E0C1E0C003038D1
:100200003E383000060E3E0E0600000000000000E2
:1002100000005F000000000700070000147F147F4B
:100220001400242A7F2A120023130864620036492E
:1002300056205000000807030000001C2241000067
:100240000041221C00002A1C7F1C2A0008083E08CE
:10025000080000807030000008080808080000004E
:10026000606000002010080402003E5149453E0035
:1002700000427F4000007249494946002141494DF2
:1002800033001814127F10002745454539003C4AB9
:1002900049493100412111090700364949493600D1
:1002A000464949291E0000001400000000403400A7
:1002B000000000081422410014141414140000411A
:1002C000221408000201590906003E415D594E0002
:1002D0007C1211127C007F49494936003E41414160
:1002E00022007F4141413E007F49494941007F0949
:1002F000090901003E41415173007F0808087F0051
:1003000000417F4100002040413F01007F0814224E
:1003100041007F40404040007F021C027F007F047C
:1003200008107F003E4141413E007F090909060057
:100330003E4151215E007F0919294600264949495D
:10034000320003017F0103003F4040403F001F2077
:1003500040201F003F4038403F00631408146300F2
:100360000304780403006159494D4300007F414173
:100370004100020408102000004141417F000402B6
:100380000102040040404040400000030708000014
:100390002054547840007F28444438003844444472
:1003A0002800384444287F0038545454180000086A
:1003B0007E0902001824241C78007F0804047800B9
:1003C00000447D4000002040403D00007F10284454
:1003D000000000417F4000007C04780478007C0825
:1003E000040478003844444438007C18242418005D
:1003F000182424187C007C08040408004854545431
:10040000240004043F4424003C4040207C001C2085
:1004100040201C003C4030403C0044281028440050
:100420004C9090907C004464544C44000008364149
:1004300000000000770000000041360800000201C3
:10044000020402003C2623263C000000000000803D
:10045000808080000000000080E070180C1830E000
:1004600080000010F8901030783010B8FC38100080
:100470000000000000F8FCF8000000000000000090
:1004800000000000001C9C1C00000000F8FCF800AC
:1004900000000000001CFCF8C0000000000000800C
:1004A000E0F87C1C000000F0FCFCFC1C1C1C1C1C6C
:1004B0001C1C1C000000000000C0F0F8381C1C1CB4
:1004C0001C1C1C3CF8F0E000E0F0F0F0E0ECEEF773
:1004D000F37020007C7C7C7E007E7E7E7F7F7F00B0
:1004E0000080C0E07E5B4F5BFEC00000C000DCD738
:1004F000DEDEDED7DC00C0000000000000000000EF
:100500000000000000000000000000000000000FDC
:10051000BCE0818181838382870C183060C0000039
:100520001FFE90B9FFBB91983C1811133F110000BA
:100530000000000000FFFFFF0000000000000000BE
:100540000000000000FFFFFF00000000FFFFFF00B1
:1005500000000000000000030F7FF8E080F0FC3F87
:100560000F0100000000003F3F3F1C1C1C1C1C3CF6
:1005700078F8F0E08000000000C3E7FF7E3C3878A8
:10058000787070F8FFDF87000F1F3F7F7F7F7F7FCE
:100590003F1E0C001F1F1F3F003F3F3F7F7F7F001C
:1005A000307B7F7830202030787F3B0003000F7F46
:1005B0000F0F0F7F0F00030000000000000000007D
:1005C00000000000000000000000183C24666341A9
:1005D000C18180808080808081C14162386C4CC63E
:1005E0008181808080808081C14362361C18000038
:1005F0000000000000FFFFFFC0C0C0C0C0C0C0C0FE
:10060000C0800000007FFF7F000000007FFFFFC070
:1006100080000000E0E0C0C0C0E0F97F1F070000DC
:100620000000000000000070F0E0E0C0C0C0C0E0CA
:10063000F0F87F3F0F0000000F3F7FF9E0E0C0C0FF
:10064000C0C0C0E0F97F3F1F0000000000000000B4
:10065000000000000000000000000000000000009A
:10066000000000000000000000000000000000008A
:10067000000000000000000000000000000000007A
:100680000000000000000000000029001E001F0004
:10069000200021002200E10014001A0008001500CB
:1006A0001700E00004001600070009000A00F15CD2
:1006B0001D001B0006001900050000000000E300FB
:1006C0002A002C0000003500270026002500240009
:1006D00023000000130012000C0018001C00000092
:1006E00000000F000E000D000B00F25CE6002B0076
:1006F00000001000110000000000E7004C0028007E
:1007000000003A003B003C003D003E003F0001007D
:100710006700230235023102010001001F0235008B
:1007200033023300010001003600370038022D0289
:10073000010000000100010001000100010045006E
:1007400044004300420041004000010030022F02FB
:1007500030002F00010001005400550056005700E2
:1007600001000100380231003702360201000000AA
:100770000100010001000100010001000100010071
:1007800001000100010001004A004D0001000100CC
:10079000010001005000520051004F000100010013
:1007A0007B007C007D0001000100000001000100D1
:1007B0000100010001000100010001000100010031
:1007C00001000100FC00FA00F900FB00010001003B
:1007D000F300F100F000F20001000100F700F60064
:1007E000F500F40001000000FF00FE00FD00010024
:1007F00001000000000000000000000000000000F8
:1008000000000000000000000000000000000000E8
:1008100000000000000000000000000000000000D8
:1008200000000000000000000000000000000000C8
:1008300000000000000000000000000000000000B8
:100E300000000000000000000000000001000100B0
:100E400001000100000000000000000000000000A0
:100E50000000000000000000000000000000C95C6D
:100E6000C75CC55CC25C00000000CA5CC85CC65CB4
:100E7000C35C00000000000001000100010001004F
:100E800000000403300000000E034C0069006C00F9
:100E90007900350038000000120346005F00590059
:100EA00055005500430048004900000004030904B0
:100EB00009023B00020100A0FA090400000103013D
:100EC00001000921110100012240000705810308EA
:100ED000000A0904010001030000000921110100BA
:100EE00001224F000705820320000A1201100100B1
:100EF00000000851FC58000001010203010501092E
:100F000002A10185020901A10005091901290515A0
:100F10000025019505750181029501750381010583
:100F200001093009311581257F950275088106096F
:100F3000381581257F950175088106050C0A380250
:100F40001581257F950175088106C0C00501090638
:100F5000A101050719E029E715002501950875018C
:100F6000810295017508810105081901290595057A
:100F7000750191029501750391010507190029FF7B
:100F8000150026FF00950675088100C011241FBEBC
:100F9000CFEFDAE0DEBFCDBF04B603FE27C08091FD
:100FA000AE039091AF03A091B003B091B10387302D
:100FB000904BA740B04BD1F41092AE031092AF0308
:100FC0001092B0031092B10314BE84B7877F84BF20
:100FD0000FB6F894A89580916000886180936000B6
:100FE000109260000FBEE0E0F8E3099512E0A0E087
:100FF000B1E0E4E5FCE502C005900D92AA31B1072D
:10100000D9F723E0AAE1B2E001C01D92AE3AB207DF
:10101000E1F70E9435250C94282E0C94000083E300
:1010200090E02091BC0027FD02C00197D1F7089500
:101030001092B9008CE08093B8000895CF93DF93AD
:101040001F92CDB7DEB794EA9093BC0089830E94CB
:101050000F089091B900987F8981983039F090916C
:10106000B900987F903111F081E012C08093BB00ED
:1010700084E88093BC000E940F088091B900887FAB
:10108000883129F08091B900887F803469F780E049
:101090000F90DF91CF91089584E98093BC0083E3A2
:1010A00090E02091BC0024FD02C00197D1F7089583
:1010B0008093BB0084E88093BC000E940F0890914D
:1010C000B900987F81E0983209F480E008951F927A
:1010D0000F920FB60F9211248F939F93EF93FF936C
:1010E0008091B900887F803869F038F48823C9F18D
:1010F0008036C9F510921A0236C0883A09F1883B49
:10110000F9F031C080911A02811111C08091BB00A9
:1011100080931B0280911B02803120F010921B02F1
:1011200080E001C081E091E090931A021DC0E0913F
:101130001B02F0E08091BB00E65EFC4F808308C09C
:10114000E0911B02F0E0E65EFC4F80818093BB00E3
:1011500080911B0290E001968F70992780931B026B
:1011600002C01092BC0081E09091BC00956882950D
:10117000880F880F807C892B8093BC00FF91EF91B2
:101180009F918F910F900FBE0F901F9018958EE139
:101190004A9B02C08150E1F74A9BFECF08955A98BE
:1011A00080E28A95F1F75A9A0895FC014AE04A953F
:1011B000F1F730E090E080E021E0961779F040E12F
:1011C0004A95F1F7880F4A9B02C08160322700C020
:1011D000000040E14A95F1F79F5FEFCF90E19A95CB
:1011E000F1F729B100C0000040E14A95F1F722FB78
:1011F000992790F993272081920F90830895EF9279
:10120000FF920F931F93CF93DF931F92CDB7DEB75B
:10121000F62E1982E82E8C01802F8E198F1558F426
:101220000E94C70868E0CE0101960E94D508F80127
:1012300081938F01F1CF81E09981911180E00F902E
:10124000DF91CF911F910F91FF90EF9008959093B0
:101250001E0280931D0260931C02529A5A9A0895AE
:1012600090931E0280931D0260931C0252985A9A1A
:10127000EA9AE9E6F0E080818F7C808308956150EE
:1012800091E001C0990F6A95EAF720E031E09923D7
:1012900061F0492F482319F05A9A232701C05A9820
:1012A00040E24A95F1F79695F2CF222311F05A9A2F
:1012B00001C05A9880E28A95F1F75A980895EF9202
:1012C000FF920F931F93CF93DF931F92CDB7DEB79B
:1012D000162F082F7C018E2D801B811758F4F701E3
:1012E00081917F0189830E94CF0868E089810E94F3
:1012F0003F09F1CF0F90DF91CF911F910F91FF9098
:10130000EF9008951F920F920FB60F9211240F9332
:101310001F932F933F934F935F936F937F938F937D
:101320009F93AF93BF93EF93FF93CF93DF931F925E
:10133000CDB7DEB719820E94C70867E0CE010196DB
:101340000E94D508382F369536953695932F969569
:101350009570232F2570920F292F237096959695BF
:101360008770920F891348C08981811145C080918F
:101370001C02831708F440C080E18A95F1F75A9A5D
:10138000529AA2E0AA95F1F700C000911D021091B7
:101390001E02B8E03B9F000D111D11245A98F80160
:1013A0006581662321F0868197810E945F090E94F2
:1013B000CF08F0E1FA95F1F75A9852985A9A80E1DD
:1013C0008A95F1F7D80112966C911297662369F00D
:1013D00013968D919C9114970E94FF08D801ED916E
:1013E000FC91811105C082E004C0D801ED91FC910F
:1013F00088E080830E94C7080F90DF91CF91FF9112
:10140000EF91BF91AF919F918F917F916F915F917C
:101410004F913F912F911F910F910F900FBE0F9001
:101420001F9018950F931F93CF93DF9320911C0269
:1014300030E0281739070CF471C09C0193E0220FAB
:10144000331F9A95E1F7C0911D02D0911E02C20F81
:10145000D31FF894529A5A9845E04A95F1F7000044
:10146000982F969595708570890F982F9370869513
:101470008695890F8901082B0E94CF0884E08A9500
:10148000F1F700C067E0802F0E943F0940E14A95D4
:10149000F1F752985A9A4A9902C000C0FCCF87E0EF
:1014A00090E04A9B0EC0019751F4529A5A9AE881F3
:1014B000F98181E08083789481E090E031C000C0C0
:1014C000F0CF6D81662381F08E819F810E94FF089D
:1014D00081110AC0529A5A9AE881F98182E0808388
:1014E000789482E090E01CC00E94C70880E28A9550
:1014F000F1F75A98529A40E14A95F1F76A816623CA
:1015000021F08B819C810E945F090E94CF08E881B5
:10151000F9811082789480E090E002C084E090E04D
:10152000DF91CF911F910F910895CF93C82F88E736
:101530000E941E0881110AC080E00E945808811193
:1015400005C08C2F0E945808C1E08111C0E00E94A4
:101550004C088C2FCF910895CF93DF931F92CDB776
:10156000DEB769830E94950A6981882331F0862F4E
:101570000F90DF91CF910C94950A80E00F90DF914E
:10158000CF910895CF93C62F0E94950A882349F0E2
:1015900080E00E94950A882321F08C2FCF910C9433
:1015A000950A80E0CF9108958EEA0C94950A8FEA0F
:1015B0000C94950A0F931F93CF93DF938C010C5AD1
:1015C0001F4FD801ED91FC91119760832D913C91B3
:1015D00011972F5F3F4F2D933C93281B390B2435D8
:1015E0003105B9F4EC01BC016B5E7F4F4FE350E075
:1015F0000E94D82ACE01CF96F8019183808345E1DD
:1016000050E060E270E0DF91CF911F910F910C9458
:10161000EA2ADF91CF911F910F9108951F93CF93E5
:10162000DF93FC01EA5AFF4F21E020836A3099F4EE
:10163000EC013297808191818C1B9D0B65E170E0FC
:101640000E949D2A182F153158F460E2CE010E94A5
:10165000DA0A1F5FF8CFDF91CF911F910C94DA0A5D
:10166000DF91CF911F910895EF92FF920F931F93F7
:10167000CF93DF937C01EB01FB0101900020E9F7A0
:101680008F0101501109C017D10728F46991C701D2
:101690000E940E0BF8CFDF91CF911F910F91FF9019
:1016A000EF900895CF92DF92EF92FF920F931F93E6
:1016B000CF93DF93CDB7DEB76C01EDB6FEB6DB019D
:1016C0000D900020E9F79D01261B370B2F5F3F4F40
:1016D0008DB79EB7821B930B0FB6F8949EBF0FBEBB
:1016E0008DBF0DB71EB70F5F1F4F7F936F9380E7BE
:1016F00091E09F938F933F932F931F930F930E949B
:10170000F82AB801C6010E94340B8DB79EB708961F
:101710000FB6F8949EBF0FBE8DBF0FB6F894FEBEF5
:101720000FBEEDBEDF91CF911F910F91FF90EF9013
:10173000DF90CF900895CF93DF93EC0144E550E024
:1017400060E270E00E94EA2AFE01EC5AFF4FD1836A
:10175000C083CA5ADF4F81E08883DF91CF9108951B
:101760008F929F92AF92BF92DF92EF92FF920F9370
:101770001F93CF93DF93EC010E944F21909320029F
:1017800080931F020E94D70A63E082E20E94C20A8D
:10179000882309F43CC06DE781E20E94C20A8823D5
:1017A000B1F188E70E941E08811131C080E40E94D7
:1017B000580881112CC04E0184E0D82E00E010E0C2
:1017C000F401E00FF11FA08086E0A89E50011124D3
:1017D000E12CF12CF701EA0DFB1DE65BFE4F849135
:1017E0000E9458088FEFE81AF80A86E0E816F1041C
:1017F00089F70F5F1F4F0531110511F7DA9485E165
:10180000880E911CD110DACFCA5ADF4F1882DF91AF
:10181000CF911F910F91FF90EF90DF90BF90AF900D
:101820009F908F900C944C088AE293E00C94B00B3C
:10183000CF93DF93C82F0E9418088EEA0E94950A62
:10184000811102C080E09BC060E885ED0E94AC0A77
:101850008823C1F36FE188EA0E94AC0A882391F3E0
:1018600060E083ED0E94AC0A882361F380E40E946B
:10187000950A882339F364E18DE80E94AC0A882335
:1018800009F360E080E20E94AC0A8823D9F2CC23FD
:1018900039F080EA0E94950A8823A1F280EC06C004
:1018A00081EA0E94950A882369F288EC0E94950AD1
:1018B000882341F262E08AED0E94AC0A882311F28B
:1018C0006FE881E80E94AC0A882309F4BBCF61EF7E
:1018D00089ED0E94AC0A882309F4B4CF60E48BED53
:1018E0000E94AC0A882309F4ADCF84EA0E94950ACD
:1018F000882309F4A7CF86EA0E94950A882309F471
:10190000A1CF8EE20E94950A882309F49BCF8FEA2B
:101910000E94950A882309F495CF60E081E80E942F
:10192000AC0A882309F48ECF8AE293E00E949B0BD5
:1019300063E082E20E94C20A8823E1F06FE781E25D
:101940000E94C20A8823B1F088E70E941E08811114
:1019500011C080E40E94580881110CC0D4E0C0E09E
:1019600080E00E945808CF5FC038D1F7D150B9F756
:10197000109280030E944C080E94140C81E0DF91B9
:10198000CF9108950E94391080918003811104C085
:1019900080910001882321F00E94140C1092000114
:1019A00080911F02909120020E945B2181369A4E05
:1019B00010F00C94D40A089581E0809300010895FA
:1019C000AAE7B1E041E050E08D91E82FE295EF7099
:1019D000F0E021A18F70BA0102C0660F771F8A95CF
:1019E000E2F7CB01962F9095922391A392A1892B98
:1019F00082A371E0AF37B70739F708950C94F20F5F
:101A00000C94F80F80910303836088608093030334
:101A10000E94E00CA4E7B1E041E050E08D91E82F96
:101A2000E295EF70F0E021A18F70BA0102C0660F5D
:101A3000771F8A95E2F7CB01962F9095922391A379
:101A400092A1892B82A371E0AA37B70739F7559A7B
:101A5000209A5D9A289AA1E2B2E0EBE2F2E08AE0F5
:101A60008E0F11921D928E13FCCF0E948D0E8093CB
:101A700035020C94C0109F92AF92BF92CF92DF922A
:101A8000EF92FF920F931F93CF93DF938091020108
:101A9000811103C005E010E002C000E010E0A801E1
:101AA0004F5D5D4F7A01EA018AE7C82E81E0D82EAA
:101AB000AA24A394B12C25E0922E8FE7C81681E0CA
:101AC000D80609F448C0F60181916F01E82FE2952C
:101AD000EF70F0E021A18F70A50102C0440F551FE7
:101AE0008A95E2F7CA01922F982B91A392A1809533
:101AF000892382A350EA5A95F1F7E4E7F1E020E068
:101B000040E050E03191A32FA295AF70B0E09096E5
:101B10008C9190E03F7002C0959587953A95E2F7D9
:101B200080FD07C0C501042E01C0880F0A94EAF7A2
:101B300002C080E090E0282B4F5F5F4F4630510598
:101B400009F78881821719F02883909201010E9479
:101B5000E00C2196B2CF809101018823E1F0815001
:101B600080930101882339F0EFE9FFE03197F1F725
:101B700000C0000010C080E090E0FC01E00FF11F09
:101B8000E55DFD4FD701A80FB91F2C912083019669
:101B90008530910591F781E0DF91CF911F910F91F1
:101BA000FF90EF90DF90CF90BF90AF909F900895FF
:101BB000CF93DF9320910201211103C0C0E0D0E058
:101BC00002C0C5E0D0E00E94B70E009721F0029756
:101BD00081F428980EC0289ADE01A55DBD4F85E0EE
:101BE000E1E4F2E001900D928A95E1F780E090E067
:101BF00002C081E090E0DF91CF9108950E943B0DFB
:101C000080910201811103C045E050E002C040E034
:101C100050E080E090E020E0DC01AF5BBD4F6C91D4
:101C2000FC01E40FF51FE55DFD4F3081631321E0FA
:101C30003C9301968530910579F780913902280F00
:101C4000209339020895CF93DF9380913502882342
:101C500009F442C00E943B0D80910201811103C032
:101C6000C5E0D0E002C0C0E0D0E0C55DDD4F45E09A
:101C700050E0BE018CE392E00E94CB2A25E0FE01F9
:101C8000ACE3B2E001900D922A95E1F70E94D80DE5
:101C9000892BF1F05D98809136028F5F8093360238
:101CA000863070F180910201811103C020E030E0A4
:101CB00002C025E030E080E090E0FC01E20FF31F7D
:101CC000E55DFD4F1082019685309105B1F718C092
:101CD0005D9A1092360214C00E94FE0D809102019E
:101CE000811103C0A0E0B0E002C0A5E0B0E0A55DB6
:101CF000BD4F85E0ECE3F2E001900D928A95E1F7AB
:101D00000E94C81081E0DF91CF910895E82FF0E0A4
:101D1000E55DFD4F808108950895E8EDF0E0808154
:101D2000806180838AE18A95F1F700C08091D900B3
:101D3000817008950E948D0E809302010E948D0E85
:101D4000882319F00E94AB0E02C00E94B10E789455
:101D500008950C949A0E63E070E083E091E00C9497
:101D6000270963E070E083E091E00C9430090F9361
:101D70001F93CF93DF938C0190911C0180911B01E5
:101D8000981761F082E090E00E94120AEC01892B22
:101D900039F480911B0180931C0102C0C0E0D0E0A7
:101DA000012B49F48091370290913802892B19F464
:101DB00080E090E002C081E090E00E94120A892B4E
:101DC00049F48091390280931B01109238021092DD
:101DD000370206C081E090E090933802809337028A
:101DE000CE01DF91CF911F910F9108958091EE0266
:101DF0009091EF02A091F002B091F1028430910530
:101E0000A105B105E1F060F40097A105B105A1F0CD
:101E100082309105A105B105E1F460EA71E011C0DD
:101E2000009721E0A207B10589F08630910521E0F5
:101E3000A207B10559F00DC064E871E002C063E982
:101E400071E081E893E00E94F12A1CC06DEA71E024
:101E5000F8CFBF93AF939F938F938BEB91E09F93BA
:101E60008F931F9288E18F9381E893E09F938F93E4
:101E70000E94F82A8DB79EB70A960FB6F8949EBFB7
:101E80000FBE8DBF81E893E008958DE191E0089544
:101E9000CF938C33910528F4FC01E352FE4FC081AF
:101EA00001C0C0E21F92CF939F938F93FB0180816B
:101EB0001F928F9381811F928F938CEC91E09F935F
:101EC0008F931F9288E18F938DE592E09F938F937C
:101ED0000E94F82A8DB79EB70E960FB6F8949EBF53
:101EE0000FBE8DBF8091460290914702449779F0D2
:101EF0008091460290914702FC01E85BFD4FC08350
:101F000001969093470280934602CF9108951092D4
:101F1000470210924602E8E4F2E080E292E0EC35FB
:101F2000F90731F38193FACF8DE592E0089588E4C3
:101F300092E008950F931F93CF93DF93EC018B01F1
:101F40000E94DC0C882329F0B801CE010E945D10AC
:101F500002C080E090E08170DF91CF911F910F91DE
:101F600008950895CF92DF92EF92FF920F931F93FF
:101F700001E010E020E030E06801790104C0CC0C01
:101F8000DD1CEE1CFF1C8A95D2F704C0000F111F48
:101F9000221F331F6A95D2F70C291D292E293F29AC
:101FA000C090EE02D090EF02E090F002F090F102CB
:101FB000C022D122E222F322842FC016D106E206EB
:101FC000F30641F41F910F91FF90EF90DF90CF90B7
:101FD0000C94E01D1F910F91FF90EF90DF90CF9038
:101FE0000C94011E0E948D0E91E089270C94180C10
:101FF0000C94C20CCF93DF93EC01809135028823BF
:10200000A1F00E94F60EBC01CE010E94520B0E946C
:10201000940FBC01CE010E94520B0E94970FBC018D
:10202000CE01DF91CF910C94520B0E94450FBC0161
:10203000CE01DF91CF910C94340B0F931F93CF936C
:10204000DF93EC018B0144E550E00E94CB2A892B01
:1020500059F084E5F801DE0101900D928A95E1F7CF
:10206000CA5ADF4F81E08883DF91CF911F910F9192
:102070000895CF93DF93CDB7DEB7C755D1090FB61B
:10208000F894DEBF0FBECDBFCE0101960E949B0B20
:10209000CE0101960E94FA0FBE016F5F7F4F8AE268
:1020A00093E00E941D10C95ADF4F0FB6F894DEBFAF
:1020B0000FBECDBFDF91CF9108950F931F93CF93A4
:1020C000DF938C01EB018A81882319F0C8010E94FB
:1020D000480F013F8CE51807A1F020F4003F1C4594
:1020E00049F031C0023F8CE5180771F0033F1C45F1
:1020F000F9F029C0CA81CC2339F180E00E94AC10EC
:102100001DC0CA8181E002C0CA8182E0CC2341F0B7
:102110000E94E01D40E162E081E00E94B20F0EC02B
:102120000E94011E40E162E081E00E94B20F0CC0FB
:10213000CA8180E1CC2321F00E94E01DC0E004C0F0
:102140000E94011E01C0C1E08C2FDF91CF911F9131
:102150000F91089581E00895CF93DF9361E070E0DF
:10216000EB0102C0CC0FDD1F8A95E2F78C2F0E9495
:102170001E20BE0180E090E0DF91CF910C947F1D86
:102180000E940B20811102C00E948A200C94FE0C38
:102190000C94000D0C94B10F08950E94BC190E947C
:1021A000CC102FEF84E39CE0215080409040E1F779
:1021B00000C0000087E797E790930108809300082C
:1021C0000C94AB21FF920F931F93CF93DF938C015D
:1021D000FC01C081D18180918D02811113C0828167
:1021E000882349F0CE010E94DB1EF82E682FCE0115
:1021F0000E947E1E04C0CE010E94AE1EF82EBE01BB
:102200008F2D04C0CE010E94DB1EBE010E9463120E
:10221000EC01B8010E949A0F882309F449C1C73D17
:10222000FCE5DF0709F4ABC0B0F4C531ECE5DE072F
:1022300068F4C230FCE5DF0708F04FC0C1158CE53B
:10224000D80701F1C130DC4529F125C1C631DC4593
:1022500009F4FAC020C1CC3D8CE5D80771F150F4E7
:10226000C83DFCE5DF0709F4ADC0C93DDC4509F414
:10227000D0C011C1CD3DECE5DE0731F1CE3DDC45EE
:10228000A1F009C1F8018281882309F411C10E94DB
:10229000CD100EC1F8018281882309F409C1809113
:1022A000030381608093030303C1F80182818823C3
:1022B00009F4FEC00E948A20FBC0F80182818823B5
:1022C00009F4F6C080E006C0F8018281882309F491
:1022D000EFC082E00E94D425EBC0F8018281882300
:1022E00009F4DEC00E940B20811102C00E948A20E6
:1022F0000E94232090E09093A00380939F03FE010F
:10230000E350FC45E231F10530F4EA5AFF4F809189
:102310009F030C94B12A80919F03816027C0826043
:1023200025C0846023C0806121C080621FC080649A
:102330001DC080681BC08460886018C08E7F16C076
:102340008D7F14C08B7F12C08F7E10C08F7D0EC01A
:102350008F7B0CC08F770AC08B7F877F07C087FB7E
:10236000222720F991E0922790FB87F980939F0321
:1023700080919F030E9427200E94BC1999C0F801F8
:102380008281882351F010927A020E944F2190930B
:1023900077028093760282E022C080917A028111D6
:1023A0000FC080917602909177020E945B21843663
:1023B000910530F486E20E94231686E20E94ED1613
:1023C00082E024C0F8018281882361F010927B02B0
:1023D0000E944F21909379028093780280E20E94BC
:1023E000211766C080917B0281110FC08091780215
:1023F000909179020E945B218436910530F487E246
:102400000E94231687E20E94ED1680E20E942817A0
:102410004FC0F80182818111D9CF80917B02811157
:10242000F4CF80917802909179020E945B218436EA
:10243000910558F780E20E94281788E20E9423162F
:1024400088E20E94ED1634C00E945B1F282FF8011D
:10245000828140915D0150915E01882379F02A7A52
:1024600091E009F490E090937502911102C069E245
:1024700001C065E3CA010E94BE200AC080917502B6
:10248000811102C069E201C065E3CA010E94C02057
:102490000E94A71F0DC081E080937A0280937B0287
:1024A000C801DF91CF911F910F91FF900C94AA105A
:1024B00080E0DF91CF911F910F91FF90089580E010
:1024C00090E00895089596E0799FF00111249CE32F
:1024D000899FE00DF11D1124E60FF11DEE0FFF1F86
:1024E000E657F94F859194910895880F991FFC0143
:1024F000EE57F14F859194910895CF93DF930E9409
:1025000063120E943414EC01811520E59207F0F566
:10251000811530E4930708F024C1883E910500F549
:10252000803E910508F09CC1883A910570F4853A87
:10253000910508F09FC08130910509F491C108F41C
:1025400042C1049708F08CC13EC18F3B910508F44D
:102550009CC0803C910508F436C1805C9109F4C0B0
:10256000811540E2940758F4C11581E0D80708F0BE
:1025700077C1C03FD10508F426C1D06571C181156E
:1025800020E3920708F0E4C09F70DEC0811535E5B6
:10259000930708F044C0811544E5940708F0F8C09B
:1025A000C11582E5D80708F5C11521E5D20708F065
:1025B000DBC08C2F837021E030E002C0220F331F7C
:1025C0008A95E2F73C68CE0174E0969587957A95F6
:1025D000E1F78370382BCF70C695C69580E2C89F0F
:1025E000E0011124C22BD32B3BC12C2F269526951D
:1025F000CE0183709927C115D34508F0BAC040E2D7
:10260000249F90011124C1E0D0E002C0CC0FDD1F57
:102610008A95E2F72C2B3D2BE901DC6821C181155D
:1026200049E59407A0F4C11588E5D80708F0B5C0BE
:10263000C11526E5D20708F0C6C08C2F0E94B11440
:102640008F71C82FD0E0DC2FCC27D06209C1811553
:102650003AE5930708F4A6C090568115904208F019
:10266000B2C08D2F8F710E94B114DD27D0628F719F
:10267000D82BF6C0853A910509F4A8C0863A910591
:1026800009F0A7C0C2E8D0E4EBC0883A910509F48C
:10269000A3C0893A910509F4A2C08A3A910509F4C8
:1026A000A1C08B3A910509F4A0C08C3A910509F4B8
:1026B0009FC08B3B910509F49EC08C3B910509F4AA
:1026C0009DC08D3A910509F49CC0803B910509F4A9
:1026D0009BC08E3A910509F49AC08F3A910509F48E
:1026E00099C0813B910509F498C0823B910509F49A
:1026F00097C0833B910509F496C0843B910509F48A
:1027000095C0853B910509F494C0863B910509F479
:1027100093C0873B910509F492C0883B910509F469
:1027200091C0893B910509F490C08D3B910509F456
:102730008FC08E3B910509F48EC08A3B910509F448
:102740008DC0C0E0D4E48CC00E947512EC0188C03A
:102750009927D3FF03C0EC01D86C82C0EC01D06C88
:102760007FC0DF70D06A7CC0DC2FCC27C16FD06AFD
:1027700077C040E2249F90011124C1E0D0E002C064
:10278000CC0FDD1F8A95E2F7C22BD32BDA6868C025
:10279000D82FCC27C46FD06A63C0DC2FCC27C06F82
:1027A000D06A5EC08F700E94B11494E0D695C79530
:1027B0009A95E1F7CF70D0E0DC2FCC27D06A8F70EC
:1027C000806EC82B4DC0C0E0D0E04AC0C1E8D0E464
:1027D00047C0C3E8D0E444C0C2EED4E441C0C9EE6F
:1027E000D4E43EC0CAEED4E43BC0C5EBD4E438C068
:1027F000C6EBD4E435C0C3EBD4E432C0C4EBD4E4BC
:102800002FC0C7EBD4E42CC0CCECD4E429C0CDEC71
:10281000D4E426C0C3E8D5E423C0CAE8D5E420C088
:10282000C2E9D5E41DC0C4E9D5E41AC0C1E2D6E4CA
:1028300017C0C3E2D6E414C0C4E2D6E411C0C5E2B6
:10284000D6E40EC0C6E2D6E40BC0C7E2D6E408C0A8
:10285000CFE6D4E405C0C0E7D4E402C0CAE2D6E4BF
:10286000CE01DF91CF9108958238910549F1B0F4FE
:102870008133910509F458C048F48932910509F46F
:102880004EC08A32910509F454C0089585339105EC
:1028900009F440C08933910599F00895833E91056C
:1028A00029F138F4803E910591F0823E9105A1F026
:1028B0000895863E9105F9F0873E910531F108951E
:1028C00020919F0320FD3AC021FD38C008958091DA
:1028D0009F0380FD35C032C080919F0382FF32C0CC
:1028E00080919F0384FD30C083EE39C080919F03A7
:1028F00082FD28C0F5CF80919F0383FF27C0809180
:102900009F0384FD21C087EE2AC080919F0383FD31
:102910001DC0F5CF80919F0385FD1AC01BC080911B
:102920009F0385FD17C014C080919F0386FD14C0CE
:1029300015C080919F0386FD11C00EC080EE0FC0B0
:1029400089E30DC082EE0BC080E009C086EE07C0AF
:1029500089E205C085E303C08AE201C081E390E01B
:10296000089590919F0392FF0DC0282F2871283061
:1029700019F4877F846006C0282F2471243011F455
:102980008B7F886093FF0DC0282F2871283119F4A0
:10299000877E846106C0282F2471243111F48B7E38
:1029A000886194FD877E08959093810280938002D0
:1029B0000895E0918002F0918102309721F001901A
:1029C000F081E02D099480E00895E0918002F0917B
:1029D0008102309721F00280F381E02D099408955F
:1029E000E0918002F0918102309739F022E0DC0121
:1029F0002C930480F581E02D0994089520917E02A6
:102A000030917F028217930771F090937F02809339
:102A10007E02E0918002F0918102309721F00680E1
:102A2000F781E02D0994089520917C0230917D0278
:102A30008217930771F090937D0280937C02E0915E
:102A40008002F0918102309721F00084F185E02D21
:102A50000994089585B7806885BF85B7806885BF6C
:102A6000089508950C94311508950C9434150E941E
:102A70002A150E94A90E0C94321581E008950E9437
:102A800046210E94020D0E94BC210C943515CF9264
:102A9000DF92EF92FF920F931F93CF93DF93CDB707
:102AA000DEB72B970FB6F894DEBF0FBECDBF0E94E6
:102AB000230E0E943D15811111C08FEF89838A83F7
:102AC0001B820E944F218160782F9D838C834981D6
:102AD0005A816B818D810E94EF1556C083E8C82E04
:102AE00082E0D82E00E010E0E02E802F0E94860EBB
:102AF000F60141916F01F42EF82631F40F5F1F4F5C
:102B00000A30110589F7D9CF9091030391FF04C0D2
:102B10008B870E948C0E8B8520E030E04F2D50E09B
:102B2000922FBA01022E02C0759567950A94E2F7BA
:102B300060FF24C02E83EF8221E030E0690102C0F3
:102B4000CC0CDD1C9A95E2F790E08C219D21892B1D
:102B500009F420E028870E944F218160782F9A870E
:102B600089874E815F8168858A850E94EF15F8010B
:102B7000ED57FD4F8081C826C08206C02F5F3F4FB2
:102B80002630310569F6BACF0E944F231091820298
:102B90000E94D9141817A1F00E94D91480938202C0
:102BA0002B960FB6F894DEBF0FBECDBFDF91CF914D
:102BB0001F910F91FF90EF90DF90CF900C94CA106F
:102BC0002B960FB6F894DEBF0FBECDBFDF91CF912D
:102BD0001F910F91FF90EF90DF90CF900895CF93CA
:102BE000DF93CDB7DEB72B970FB6F894DEBF0FBEDD
:102BF000CDBF4F83588769877A878B87DE0111960F
:102C000086E0FD0111928A95E9F785E0FE0137968D
:102C100001900D928A95E1F749815A816B817C81FF
:102C20008D819E810E944E1C2B960FB6F894DEBFBC
:102C30000FBECDBFDF91CF910895FC0180819181BE
:102C40000E941C1F0895882309F4C6C09CEF980FAA
:102C5000913A40F4682F80915D0190915E010E944D
:102C6000BE200DC090E2980F983058F4877091E024
:102C700001C0990F8A95EAF7892F0E945E1F0C9474
:102C8000A71F9BE5980F933070F4853A29F0863A98
:102C900031F083E890E005C081E890E002C082E86E
:102CA00090E00C94FE1498E5980F973108F08EC0D0
:102CB000883A09F445C0893A09F445C08A3A09F4CA
:102CC00045C08B3A09F445C08C3A09F445C08B3BAA
:102CD00009F445C08C3B09F445C08D3A09F445C060
:102CE000803B09F445C08E3A09F445C08F3A09F497
:102CF00045C0813B09F445C0823B09F445C0833B94
:102D000009F445C0843B09F445C0853B09F445C03E
:102D1000863B09F445C0873B09F445C0883B09F46C
:102D200045C0893B09F445C08D3B09F445C08E3B45
:102D300009F445C08A3B09F445C080E090E044C0F6
:102D400082EE90E041C089EE90E03EC08AEE90E0D5
:102D50003BC085EB90E038C086EB90E035C083EB5C
:102D600090E032C084EB90E02FC087EB90E02CC065
:102D70008CEC90E029C08DEC90E026C083E891E0D7
:102D800023C08AE891E020C082E991E01DC084E977
:102D900091E01AC081E292E017C083E292E014C091
:102DA00084E292E011C085E292E00EC086E292E0F9
:102DB0000BC087E292E008C08FE690E005C080E794
:102DC00090E002C08AE292E00C941415803F20F05B
:102DD0000E9457220C9444230895882389F19CEF84
:102DE000980F913A40F4682F80915D0190915E01B7
:102DF0000E94C0200DC090E2980F983058F4877060
:102E000091E001C0990F8A95EAF7892F0E94641F0B
:102E10000C94A71F9BE5980F933020F480E090E07E
:102E20000C94FE1498E5980F973120F480E090E020
:102E30000C941415803F20F00E94BF220C94442370
:102E40000895882321F00E945E1F0C94A71F089507
:102E5000882321F00E94641F0C94A71F08954F92AD
:102E60005F926F927F92BF92CF92DF92EF92FF922A
:102E70000F931F93CF93DF937C01D62FC72FFC01B5
:102E8000058102950F70128111110E947B1F0E9413
:102E9000541F882379F0112369F080E28D0F883068
:102EA00048F082E00E94F21F0E94541F91E0B82E69
:102EB000B92601C0B12CCC2EC2948FE0C822D12CEF
:102EC000F601E859FF4F0C94B12A8C2F807FCF7008
:102ED000882311F0C295C07F112399F0CC2309F407
:102EE000AFC180E28D0F883010F0D11104C08C2F5B
:102EF0000E945E1F03C08C2F0E946E1F0E94A71F9E
:102F00009FC18D2F0E94ED16CC2309F4BEC180E233
:102F10008D0F883010F0D11104C08C2F0E94641FD7
:102F200003C08C2F0E94741F0E94A71FAEC18C2F5C
:102F3000807FCF70803211F0C295C07FDD2319F001
:102F4000D130C9F022C0112371F0002341F00130CB
:102F500031F40E948E1F8C2B0E94941F96C10E94F8
:102F60008E1F8C2B26C1002319F0013009F48DC16E
:102F70000E949D1F18C0112321F0063008F085C162
:102F80000EC0053008F081C10EC0112351F000239E
:102F900031F0F701858180FF53C18F7085838C2FBD
:102FA00008C101115EC18C2F0AC11123F9F0D53F70
:102FB00051F0D63F71F0D43FA9F4809199039091DC
:102FC0009A0381600BC08091990390919A0382606B
:102FD00005C08091990390919A03846090939A031D
:102FE000809399038D2F0E9457221EC0D53F51F028
:102FF000D63F71F0D43FA9F48091990390919A0340
:103000008E7F0BC08091990390919A038D7F05C0AC
:103010008091990390919A038B7F90939A03809368
:1030200099038D2F0E94BF220E9444233EC18C2F02
:10303000837009F050C0111134C18D2F829586958F
:103040008770880F880F9D2F9F70492E512C612CFF
:10305000712C082E04C0440C551C661C771C0A9465
:10306000D2F7D4FF14C00FE010E020E030E0B90147
:10307000A80104C0440F551F661F771F8A95D2F719
:10308000CB01BA01609570958095909503C060E082
:1030900070E0CB01C695C695C370D0E0C230D105B3
:1030A00061F0C330D10581F06429752986299729FB
:1030B000219771F00E94931DF4C064297529862917
:1030C00097290E94A51DEDC00E94931DC301B20166
:1030D0000E94811DE6C0112319F08C2F817001C060
:1030E0008695882309F4DDC08D2F8295869587709B
:1030F000880F880F9D2F9F70492E512C612C712CA9
:10310000082E04C0440C551C661C771C0A94D2F788
:10311000D4FF14C00FE010E020E030E0B901A801B6
:1031200004C0440F551F661F771F8A95D2F7CB0145
:10313000BA01609570958095909503C060E070E04D
:10314000CB01C695C695C3704C2F50E04230510557
:1031500069F04330510589F064297529862997293A
:103160004130510571F00E94591E9BC06429752998
:10317000862997290E946B1E94C00E94591EC30184
:10318000B2010E94471E8DC08D2F90E0FC01E05ED1
:10319000F109E531F10508F04FC0E858FF4F0C94F4
:1031A000B12ADF708C2F8F71112331F00E94E01D46
:1031B0008D2F0E94211769C00E94011E8D2F0E9431
:1031C000281763C0112341F0053008F05EC08C2F32
:1031D0008F710E94261E59C0063008F056C0F7CFE6
:1031E000112339F08C2F8F710E94E01D4EC01123E6
:1031F000C9F38C2F8F710E94011E47C0112329F043
:103200008C2F8F710E94CB1D40C00E94C61D3DC0F7
:10321000112349F0CF718C2F0E94E01D63E08C2FA9
:103220000E94DD1F32C081E00E94F21F023068F16F
:1032300082E00E94F21F29C0112331F0002391F295
:103240008D2F0E94231621C0002399F2D93349F40F
:103250005FEF67EE73E0515060407040E1F700C0EF
:1032600000008D2F0E94ED1610C04C2F4F706D2F57
:10327000C7010E945F120E94F21C17C04C2F4F70B2
:103280006D2FC7010E94621210C088E0C816D104D9
:1032900041F05CF0EAE0CE1AD108F2E0CF16D1049A
:1032A00020F40E94D9140E94CA10BB20F1F00E94A1
:1032B000501F80FD1AC0F70112820E944A1F0E940F
:1032C000E01DC7010E9483190E944A1FDF91CF9120
:1032D0001F910F91FF90EF90DF90CF90BF907F9064
:1032E0006F905F904F900C94011EDF91CF911F91D2
:1032F0000F91FF90EF90DF90CF90BF907F906F90F5
:103300005F904F9008950F931F93CF93DF93EC013D
:10331000888199812B813C81232BB9F09F3F11F447
:103320008F3F99F0CE010E94E210882371F06881EE
:1033300079818A810E94271F8C010E947D1E0E9434
:103340007E1DB801CE010E942F17DF91CF911F91F2
:103350000F9108950E947B1F0E948B1F0E94A71F40
:103360000E94EA230C94442380915D0190915E01B8
:103370000E94C2200C94AA190E946B1F0C94B419CD
:10338000E92FE295EF70F0E03297EE30F105B0F4FE
:10339000E357FF4F0C94B12A803F91F018F4803E20
:1033A00068F40EC0843F51F40BC0803E48F0813F6A
:1033B00029F406C093FB882780F9089580E00895DA
:1033C00081E008950E941C1F0E94C0190895CF93A8
:1033D000DF9300D000D01F92CDB7DEB70F900F90D3
:1033E0000F900F900F90DF91CF910895CF93DF93BF
:1033F00000D000D000D0CDB7DEB726960FB6F89437
:10340000DEBF0FBECDBFDF91CF9108951F93CF9345
:10341000DF93C0918E0216E080918F02C81799F059
:10342000D0E01C9FF0011D9FF00D1124E057FD4FCF
:103430004081518162817381848195810E94F61956
:103440002196C770E9CFDF91CF911F9108954091E8
:10345000C0025091C1026091C2027091C30280917A
:10346000C4029091C5020C94F6198091C502829510
:103470008F7009F054C08091C202882309F44FC0B4
:1034800080918E02A0918F026091C0027091C10262
:103490004091C3025091C402B6E08A1709F43FC0BC
:1034A00090E041155105C1F17F3F11F46F3FA1F14B
:1034B000B89FF001B99FF00D1124E057FD4F218115
:1034C00072132AC02081621327C02281211124C0D7
:1034D000238134812417350710F421503109241B2E
:1034E000350B24363105C0F42091C5022F702061C0
:1034F0002093C50226E0289FF001299FF00D11249A
:10350000EB56FD4F80818F708061808380EC92E06C
:103510000E9483190C94061A01968770BECF0895F5
:10352000CF92DF92EF92FF920F931F93CF93DF938F
:10353000CDB7DEB762970FB6F894DEBF0FBECDBF32
:103540007C0185E0F701DE011D9601900D928A95C0
:10355000E1F7D7014C9111965C91119712966C91FD
:1035600012971396CD90DC9014973091C002709111
:10357000C1028091C3029091C402009709F453C123
:103580007F3F19F43F3F09F44EC10091C20200236E
:1035900009F4CBC02091C502C816D90628F0F6015F
:1035A000E81BF90BCF0104C0809590958C0D9D1DF3
:1035B00011E08436910578F010E0207F09F0D2C048
:1035C0007C2DD98AC88A89890E94E71980EC92E00B
:1035D0000E948319BDC0822F807F09F046C07513F9
:1035E00014C0341312C0611110C02F7020612093D9
:1035F000C5020E94271A80EC92E00E9483198091F4
:10360000C502D70115968C932EC0CD2819F15F3FC6
:1036100011F44F3FF9F0162F61111CC080918E02FA
:1036200020918F0236E0821709F466C090E0389F3F
:10363000F001399FF00D1124E057FD4F71815713B0
:1036400006C07081471303C07281711103C00196D7
:103650008770E9CF162F662309F410C18091C50247
:1036600081608093C50210E009C1751315C0341341
:1036700013C0611111C08091C502D70115968C93BA
:10368000C7010E94831986E0F701A0ECB2E0019027
:103690000D928A95E1F763C04D875E878D859E8583
:1036A0006A8B0E94E2196A898823D9F16623C9F1DD
:1036B0002091C502822F82958F7090E0029774F05E
:1036C0008091C0029091C10298878F831986DB8612
:1036D000CA862C87CE0107960E94831986E0F701DF
:1036E000A0ECB2E001900D928A95E1F70E94351AA4
:1036F0000E94271A11E0C2C04D875E878D859E8586
:103700000E941C1F292F22952F7030E02230310596
:103710000CF0A8C09F7009F0A2C0805E883008F449
:10372000ADC0C7010E948319E5CFC816D90608F4B9
:1037300053C0F601E81BF90BCF018436910508F45C
:1037400050C010E07C2DD98AC88A89890E94E71967
:10375000E0ECF2E086E0DF011D928A95E9F70E9435
:10376000271A8CC0751314C0341312C0611110C015
:103770008091C502F7018583C7010E94831986E005
:10378000E0ECF2E0DF011D928A95E9F7102F76C098
:103790004D875E878D859E856A8B0E94E2196A89B6
:1037A000882309F4BECF662309F4BBCF2091C5025C
:1037B000822F82958F7090E002970CF48FCF8091CA
:1037C000C0029091C1029A8389831B82DD82CC82E0
:1037D0002E83CE01019680CF809590958C0D9D1DF6
:1037E000ACCF162F662309F49CCF75130BC034138E
:1037F00009C086E0F701A0ECB2E001900D928A9535
:10380000E1F73CC04D875E878D859E850E94E21959
:10381000811164CF8091C50281608093C502C70188
:103820000E9483192BC0662309F47BCF4D875E87E6
:103830008D859E850E94E219182F882309F471CF87
:1038400086E0F701A0ECB2E001900D928A95E1F7D5
:1038500080EC92E00E941D160E94351A80CF8111E3
:103860005CCF0CC0243031050CF05BCF9F7009F4A5
:1038700054CFF7019581907F09F04FCF812F629649
:103880000FB6F894DEBF0FBECDBFDF91CF911F9171
:103890000F91FF90EF90DF90CF9008951F93CF93FB
:1038A000DF93CDB7DEB72C970FB6F894DEBF0FBE0F
:1038B000CDBF4F83588769877A878B879C87CE01D6
:1038C00007960E94901A882369F08F8198852A852F
:1038D0003B85232BF1F19F3F09F063C08F3F09F037
:1038E00060C037C086E0FE013796DE011196019078
:1038F0000D928A95E1F76F817885EA85FB8530978F
:1039000041F17F3F11F46F3F21F120918F0230E0B0
:10391000C90101968770992740918E0250E0841763
:10392000950709F447C069837A83FD83EC8396E0A9
:10393000929FD001939FB00D1124A057BD4FFE015F
:10394000319601900D929A95E1F780938F020E9433
:10395000061A16E080918E0290918F028917C1F1AC
:10396000189FC001112480579D4F0E94901A8823F0
:1039700079F1E0918E021E9FF0011124E057FD4F76
:103980004081518162817381848195810E94F61901
:1039900080918E0290E001968770992780938E0225
:1039A000D9CF4F81588569857A858B859C850E9402
:1039B000F619CFCF0E94BC1910928F0210928E027E
:1039C000E0ECF2E086E0DF011D928A95E9F7C1CFD5
:1039D0002C960FB6F894DEBF0FBECDBFDF91CF910E
:1039E0001F910895EF92FF920F931F93CF93DF9350
:1039F0008C01892B09F46CC0F12CEE24E394E801CE
:103A00002196F8018491843740F4843008F051C045
:103A1000813081F0823019F15BC0853709F444C0F0
:103A2000A8F19CE7980F903708F052C08F770E945A
:103A3000ED1641C00E5F1F4FFE01C49180E28C0F56
:103A4000883048F4C7708E2D01C0880FCA95EAF7F8
:103A50000E947E1F14C08C2F0E9423162DC00E5F63
:103A60001F4FFE01C49180E28C0F883058F4C7705C
:103A70008E2D01C0880FCA95EAF70E94841F0E940C
:103A8000A71F1AC08C2F0E94ED1616C00E5F1F4F85
:103A9000FE01C491CC2381F08FE99FE00197F1F7FB
:103AA00000C00000C150F6CF0E5F1F4FFE01F49022
:103AB00003C00E9423168E018F2D882309F49FCF07
:103AC000EFE9FFE03197F1F700C000008150F5CF3A
:103AD000DF91CF911F910F91FF90EF90089508957E
:103AE0000C946F1D0E94701D6093F2027093F3029C
:103AF0008093F4029093F5020C94AA1908950C9403
:103B0000721D0F931F930091F2021091F302209106
:103B1000F4023091F502602B712B822B932B1F91B5
:103B20000F910C94721D0F931F930091F20210914C
:103B3000F3022091F4023091F50260237123822375
:103B400093231F910F910C94721D0F931F9300915B
:103B5000F2021091F3022091F4023091F5026027F5
:103B60007127822793271F910F910C94721D08953E
:103B70000C94B71D0E94B81D6093EE027093EF0283
:103B80008093F0029093F1020C94AA1960E070E027
:103B9000CB010C94BA1D0F931F9341E050E060E0FD
:103BA00070E08A019B0104C0000F111F221F331F08
:103BB0008A95D2F7C901B8011F910F910C94BA1DD3
:103BC0000F931F9341E050E060E070E004C0440FA9
:103BD000551F661F771F8A95D2F78091EE0290914C
:103BE000EF02A091F002B091F1028A019B01082B33
:103BF000192B2A2B3B2BC901B8011F910F910C9453
:103C0000BA1D0F931F9341E050E060E070E004C0E4
:103C1000440F551F661F771F8A95D2F74095509520
:103C2000609570958091EE029091EF02A091F00264
:103C3000B091F1028A019B01082319232A233B2317
:103C4000C901B8011F910F910C94BA1D0F931F93D6
:103C500041E050E060E070E004C0440F551F661F73
:103C6000771F8A95D2F78091EE029091EF02A09192
:103C7000F002B091F1028A019B01082719272A2737
:103C80003B27C901B8011F910F910C94BA1D0F93E6
:103C90001F930091EE021091EF022091F0023091FB
:103CA000F102602B712B822B932B1F910F910C949F
:103CB000BA1D0F931F930091EE021091EF02209115
:103CC000F0023091F10260237123822393231F912C
:103CD0000F910C94BA1D0F931F930091EE02109157
:103CE000EF022091F0023091F102602771278227C4
:103CF00093271F910F910C94BA1D0895292F220F1D
:103D0000920F990F890FA82FA695A695A695877053
:103D100051E001C0550F8A95EAF785E0A89FD001D0
:103D2000112420E030E070E0F901EA0FFB1FEA53B4
:103D3000FD4F4081CB01022E02C0969587950A94D3
:103D4000E2F78170992781958427852384278083D2
:103D50002F5F3F4F2530310539F70895292F220F66
:103D6000920F990F890F682F669566956695982F23
:103D7000977085E0689FB001112440E050E080E03A
:103D8000FA01E60FF71FEA53FD4F208130E0092EBC
:103D900002C0369527950A94E2F721703327042E46
:103DA00001C0220F0A94EAF7822B4F5F5F4F453024
:103DB000510531F70895BF92CF92DF92EF92FF92B3
:103DC0000F931F93CF93DF938C01C090F202D0909A
:103DD000F302E090F402F090F5028091EE029091EF
:103DE000EF02A091F002B091F102C82AD92AEA2A82
:103DF000FB2ACFE1D0E0D701C6010C2E04C0B69556
:103E0000A795979587950A94D2F780FF07C0BC2E97
:103E1000B8018C2F0E947D12019719F4219758F751
:103E2000B12C8B2DDF91CF911F910F91FF90EF90CF
:103E3000DF90CF90BF900895CF93DF93EC010E9465
:103E4000DB1EBE010E947D12DF91CF9108951F936A
:103E5000CF93DF93EB0190918D02992321F0CB0159
:103E60000E941C1F13C0882349F0CB010E94DB1E57
:103E7000182F682FCE010E947E1E04C0CB010E9425
:103E8000AE1E182FBE01812F0E947D12DF91CF91AF
:103E90001F9108958091F6028595859585950895E1
:103EA0008091F602877008959091F602977081E0F4
:103EB00009F480E00895809102030895909102032F
:103EC000892B8093020308958095909102038923A2
:103ED00080930203089510920203089590910103C4
:103EE000892B809301030895809590910103892384
:103EF00080930103089510920103089590910003A7
:103F0000892B809300030895809590910003892365
:103F10008093000308951092000308958091F702A2
:103F2000089508950C94911F9091F702981721F02D
:103F30008093F7020C94921F08958091F7028823D2
:103F400029F01092F70280E00C94921F0895E091FE
:103F50005D01F0915E01809102038083E0915D013B
:103F6000F0915E01908180910103892B8083E09123
:103F70005D01F0915E01908180910003892B808327
:103F80008091F702882381F0E0915D01F0915E015C
:103F90009081892B808380915D0190915E010E94C8
:103FA0008C2081110E949D1F80915D0190915E0186
:103FB0000C94E51408950C94DA1F98E0899F900101
:103FC0001124262B2093F6020E94E01D8091F60218
:103FD0008595859585950C94DB1F1092F60280E0FF
:103FE0000C94DB1F2091F602809582238093F602C9
:103FF000982F977079F430E0482F082E000C550B5D
:104000002417350739F08595859585950E94011E01
:104010000C94ED1F089580E090E00E94B72D21E000
:104020008D3E9E4F09F020E0822F089582E090E0BF
:104030000C94AF2D83E090E00C94AF2D682F83E0BB
:1040400090E00C94BD2D84E090E00C94AF2D682F8F
:1040500084E090E00C94BD2DAB01BC018FE090E0BA
:104060000C94CF2DAB01BC0183E190E00C94CF2DDB
:1040700060E070E0CB010C94322060E070E0CB0196
:104080000E942C200C9438206DEE7EEF80E090E0B2
:104090000E94DB2D60E082E090E00E94BD2D60E098
:1040A00083E090E00E94BD2D1092F2021092F30284
:1040B0001092F4021092F50260E084E090E00E9419
:1040C000BD2D60E085E090E00E94BD2D60E086E0BF
:1040D00090E00E94BD2D6FEF87E090E00E94BD2D23
:1040E00040E050E0BA0188E090E00E94CF2D60E00F
:1040F0008DE090E00E94BD2D40E050E0BA0188E1E3
:1041000090E00E94CF2D60E087E190E00E94BD2DFD
:104110000C943D200C944420FC01329697E080E002
:10412000915029F021912223D9F38F5FF9CF08957F
:104130009C01FC0132969FEF80E04191461789F087
:104140009F3F19F4411101C0982F8F5F8630A9F766
:104150009F3F39F0F901E90FF11D97FDFA95628350
:1041600008950895FC01329608962081261301C017
:1041700010823196E817F907C1F708950C9498203A
:104180000C94B220029626E0FC0111922A95E9F7E0
:10419000089508950C94C9200E94CA208091A50317
:1041A000843049F11092040320E488E190E00FB6D6
:1041B000F894A895809360000FBE2093600080E083
:1041C0000E94CA100E94CA2083B7817F846083BF87
:1041D00083B7816083BF7894889583B78E7F83BFD0
:1041E0000FB6F894A8958091600088618093600074
:1041F000109260000FBE089508950895CF930E9415
:10420000FC200E94230E0E94FD20C0E08C2F0E9403
:10421000860E811104C0CF5FCA30C1F701C081E0B2
:10422000CF91089508950C9412210E94BC190E9408
:10423000D9140E94CA100C9413211F920F920FB62A
:104240000F9211248F939F93AF93BF938091040398
:10425000811113C080919B0390919C03A0919D03B9
:10426000B0919E034196A11DB11D80939B03909335
:104270009C03A0939D03B0939E03BF91AF919F9128
:104280008F910F900FBE0F901F90189582E084BD04
:1042900093E095BD9AEF97BD80936E0008952FB778
:1042A000F89480919B0390919C03A0919D03B09101
:1042B0009E032FBF0895CF92DF92EF92FF920F934C
:1042C0001F932FB7F89440919B0350919C036091EA
:1042D0009D0370919E032FBF6A017B01EE24FF2492
:1042E0008C0120E030E0C016D106E206F30610F49F
:1042F000415051099A01281B390BC9011F910F9197
:10430000FF90EF90DF90CF90089578941F920F92D6
:104310000FB60F9211248F939F93AF93BF93809109
:104320009B0390919C03A0919D03B0919E030196E5
:10433000A11DB11D80939B0390939C03A0939D03AB
:10434000B0939E03BF91AF919F918F910F900FBE3D
:104350000F901F90189587E797E790930108809337
:1043600000089AE088E10FB6F894A8958093600061
:104370000FBE90936000FFCF0E940B20811102C0FE
:104380000E948A200E941620809303030E9423200B
:1043900090E09093A00380939F030E941A20682FBF
:1043A00070E080E090E00C947F1D8091070380FF17
:1043B0000BC06091620185E0689FB0011124759582
:1043C0006795759567952BC081FF09C06091620163
:1043D00085E0689FB00111247595679520C082FF24
:1043E00007C06091620185E0689FB001112417C089
:1043F000909108039923D1F060916101961788F795
:104400002091620185E0289F90011124929FA001D4
:10441000939F500D112470E0CA010E949D2A6038BC
:10442000710540F46115710539F002C065E070E076
:10443000862F08958FE7089581E0089580910703FE
:1044400080FF08C06091600170E075956795759573
:10445000679521C081FF06C06091600170E075958D
:10446000679519C082FF04C06091600170E010C0C0
:10447000909108039923C1F060915F019617A0F70E
:1044800080916001899FC001112470E00E949D2AE3
:104490006038710528F46115710521F0862F0895A3
:1044A0008FE7089581E0089561E070E0F4CF803FE8
:1044B00021F40E94D521819504C0813F29F40E94F6
:1044C000D52180930C030895823F21F40E94D521C9
:1044D000819504C0833F29F40E94D52180930B036A
:1044E0000895893F19F40E941E2205C08A3F31F4C5
:1044F0000E941E22819580930D0308958B3F21F425
:104500000E941E22819504C08C3F29F40E941E2225
:1045100080930E030895843F21F480910A03816003
:1045200017C0853F21F480910A03826011C0863F45
:1045300021F480910A0384600BC0873F21F48091AD
:104540000A03886005C0883F31F480910A038061C6
:1045500080930A0308958D3F21F4809107038160C1
:104560000BC08E3F21F480910703826005C08F3F0E
:1045700029F4809107038460809307030895803FA6
:1045800039F480910C0387FF6CC010920C0369C052
:10459000813F29F480910C031816BCF362C09091FE
:1045A0000B03823F29F497FF5CC010920B0359C0A4
:1045B000833F19F41916CCF354C0893F41F480911C
:1045C0000D0318160CF04DC010920D034AC08A3F1F
:1045D00029F480910D0387FF44C0F6CF8B3F39F457
:1045E00080910E0387FF3DC010920E033AC08C3FAE
:1045F00029F480910E031816BCF333C0843F21F4D4
:1046000080910A038E7F17C0853F21F480910A03B1
:104610008D7F11C0863F21F480910A038B7F0BC0F0
:10462000873F21F480910A03877F05C0883F31F4DA
:1046300080910A038F7E80930A0313C08D3F21F47B
:10464000809107038E7F0BC08E3F21F4809107037A
:104650008D7F05C08F3F29F4809107038B7F809366
:10466000070380910B0381110EC080910C0381110F
:104670000AC080910D03811106C080910E03811143
:1046800002C010920803089589E093E00E94F0149C
:104690000E944F21909306038093050308951F9372
:1046A000CF93DF9380910503909106030E945B21D5
:1046B000AC0190910803992321F02091630130E02F
:1046C00006C0209164018AE0289F900111244217BE
:1046D000530708F47BC080910B03C0910C03D09169
:1046E0000D0310910E03811107C0C1116BC0D111D0
:1046F00069C0111167C06AC09F3F19F09F5F909316
:104700000803181624F40E94D52180930B0380918E
:104710000B0387FF05C00E94D521819580930B0371
:104720001C1624F40E94D52180930C0380910C0365
:1047300087FF05C00E94D521819580930C0330919D
:104740000B033323E1F020910C032223C1F045EB4E
:104750003403C0011124892F990F990B009709F494
:1047600081E080930B0335EB2303C0011124892FD3
:10477000990F990B009709F481E080930C031D16A3
:1047800024F40E941E2280930D0380910D0387FF65
:1047900005C00E941E22819580930D03111624F4FA
:1047A0000E941E2280930E0380910E0387FF05C096
:1047B0000E941E22819580930E03DF91CF911F915D
:1047C0000C9444239F3F09F099CFA1CFDF91CF9163
:1047D0001F910895E9E0F3E086E0DF011D928A95DC
:1047E000E9F71092080310920703089580911703C8
:1047F000089508950895CF93DF93EC010E94E42576
:10480000823011F08430F9F482E08093E9009FEF68
:104810008091E800915085FD06C085ED8A95F1F7FD
:1048200000009111F5CF8091E80085FF0CC040E0B9
:1048300050E066E070E0CE010E9401268091E80021
:104840008E778093E800DF91CF910895CF93DF9327
:10485000EC010E94E425823011F0843039F581E0CA
:104860008093E9008FEF9091E800815095FD06C09C
:1048700095ED9A95F1F700008111F5CF8091E80050
:1048800085FF14C040E050E068E070E0CE010E9477
:1048900001268091E8008E778093E80088E0FE0191
:1048A000AFE0B3E001900D928A95E1F7DF91CF91EF
:1048B00008958091A403811109C00E9496270E9447
:1048C000F3278091E20084608093E20008951092C3
:1048D000A4030895089508950C94152142E061EC15
:1048E00081E00E94102742E261EC82E00C941027E4
:1048F0008091A703833009F460C030F4813071F0F7
:10490000823009F499C008958A3009F485C08B304B
:1049100009F46BC0893009F0A7C020C08091A603BC
:10492000813A09F0A1C08091E800877F8093E80078
:104930008091AA039091AB03892B21F468E08FE06A
:1049400093E003C060E080E090E070E00E944C26BD
:104950008091E8008B778093E80008958091A6030A
:10496000813209F081C08091AA039091AB03029734
:1049700008F07AC08091E800877F8093E8008091FA
:10498000E80082FD05C08091A5038111F8CF6CC0BD
:104990002091F3008091F20090E0922B029729F48D
:1049A0008091F1008B7F813021F48091F100809320
:1049B00017038091E8008B7753C08091A603813A5A
:1049C00009F052C08091AA039091AB03892B09F0A2
:1049D0004BC08091E800877F8093E8008091E800D9
:1049E00080FFFCCF80916F0136C08091A603813299
:1049F000D9F58091AA039091AB03892BA9F58091F9
:104A0000E800877F8093E8000E9445278091A803F3
:104A100080936F010C94BC198091A603813221F51B
:104A20008091E800877F8093E8000E94452780916D
:104A3000A9038093180308958091A603813AA1F4F5
:104A40008091E800877F8093E8008091E80080FFF4
:104A5000FCCF809118038093F1008091E8008E775D
:104A60008093E8000C944527089584B7877F84BF1E
:104A70000FB6F894A89580916000886180936000DB
:104A8000109260000FBE80E8809361001092610078
:104A90000E9437150E9496270E94F3278091E2001A
:104AA00084608093E20078940E94822A0E943F15DD
:104AB00085E691E00E94D4148091A503853069F4C5
:104AC0000E94CC208091A3038823B1F30E94FE2092
:104AD000882391F30E94EB25EFCF0E944715ECCF7E
:104AE0000C947225292F332723303105C9F064F443
:104AF0002130310581F02230310509F04CC08BE3C3
:104B000090E020EB3EE04BC02132310521F1223212
:104B1000310589F140C082E190E02BEE3EE03FC0DC
:104B200099278130910571F02CF4892BA1F5ECEADD
:104B3000FEE00DC08230910541F0039761F5E2E897
:104B4000FEE005C0E8E9FEE002C0E8E8FEE084918E
:104B500090E09F0124C06115710541F0613071053D
:104B6000D1F489E090E02BED3EE019C089E090E0BF
:104B700022EC3EE014C06115710541F06130710511
:104B800051F48FE490E02DEF3EE009C080E490E026
:104B90002CE43FE004C080E090E020E030E0FA0147
:104BA0003183208308950895CF93C82F0E94D32581
:104BB000C0931903CF9108958091A503843011F01B
:104BC00081E0089582E0089580911903811102C067
:104BD0000C94DC25089580E189BD82E189BD09B48A
:104BE00000FEFDCF8091D8008F7D8093D80080910A
:104BF000E00082608093E0008091E00081FDFCCFC6
:104C00000895CF92DF92EF92FF920F931F93CF936D
:104C1000DF93EC018B016A010E946427811133C08C
:104C2000C114D10439F0F60180819181081B190B60
:104C3000C80FD91FE12CF12C0115110519F1809134
:104C4000E80085FD16C08091E8008E778093E8002B
:104C5000C114D10449F0F60180819181E80EF91E5A
:104C6000F182E08285E00FC00E946427882321F34F
:104C70000AC089918093F10001501109FFEFEF1AEA
:104C8000FF0ADACF80E0DF91CF911F910F91FF9063
:104C9000EF90DF90CF9008952091AC033091AD0359
:104CA0002617370748F06115710539F42091E8009F
:104CB0002E772093E80001C0B90140E0611571052D
:104CC000A9F12091A503222309F443C0253009F45A
:104CD00042C02091E80023FD40C02091E80022FD61
:104CE00032C02091E80020FFE9CF4091F3002091ED
:104CF000F20030E0342BFC01CF016115710559F051
:104D00002830310540F481918093F10061507109A0
:104D10002F5F3F4FF1CF41E02830310509F040E0EF
:104D20002091E8002E772093E800C8CF4111C9CF29
:104D30000AC08091A503882361F0853061F08091DD
:104D4000E80083FD0AC08091E80082FFF2CF80E096
:104D5000089582E0089583E0089581E00895209108
:104D6000AC033091AD032617370748F06115710584
:104D700039F42091E8002E772093E80001C0B901B2
:104D8000FC0120E06115710591F18091A503882354
:104D900009F440C0853009F43FC08091E80083FDEC
:104DA0003DC08091E80082FD2FC08091E80080FF27
:104DB000E9CF2091F3008091F20090E0922B6115F1
:104DC000710559F08830910540F424912093F10049
:104DD0003196615071090196F2CF21E0089709F0F0
:104DE00020E08091E8008E778093E800CBCF2111FE
:104DF000CCCF0AC08091A503882361F0853061F093
:104E00008091E80083FD0AC08091E80082FFF2CF24
:104E100080E0089582E0089583E0089581E0089598
:104E2000982F973058F59093E900981739F07091C2
:104E3000EC002091ED005091F00003C0242F762F5C
:104E400050E021FF19C03091EB003E7F3093EB0022
:104E50003091ED003D7F3093ED003091EB003160FB
:104E60003093EB007093EC002093ED005093F00032
:104E70002091EE0027FF07C09F5FD3CF8F708093F4
:104E8000E90081E0089580E008958091A60387FFFE
:104E900011C08091E80082FD05C08091A5038111B9
:104EA000F8CF11C08091E8008B770BC08091A503EB
:104EB000882349F08091E80080FFF8CF8091E800D6
:104EC0008E778093E80008952091E4003091E5000A
:104ED00095E64091EC00842F817040FF22C08091C4
:104EE000E80080FD1CC08091A503882391F08530E7
:104EF00091F08091EB0085FD10C04091E40050914D
:104F0000E5004217530729F39A01915011F784E005
:104F1000089582E0089583E0089581E0089580E097
:104F200008954091E80042FFDECF08950E940428D2
:104F30000E940C28E0EEF0E0808181608083E8ED43
:104F4000F0E080818F77808319BCA7EDB0E08C9171
:104F50008E7F8C9380818F7E80831092A40308952E
:104F60000F931F93CF93DF930E9404280E940C2875
:104F7000C8EDD0E088818F778883888180688883B6
:104F800088818F7D888319BC1092A5031092A1039C
:104F90001092A3031092A20300EE10E0F8018081AA
:104FA0008B7F808388818160888342E060E080E03D
:104FB0000E941027E1EEF0E080818E7F8083E2EE98
:104FC000F0E0808181608083808188608083F80147
:104FD00080818E7F8083888180618883DF91CF91FB
:104FE0001F910F910895E8EDF0E080818F7E80831E
:104FF000E7EDF0E080818160808384E082BF81E022
:105000008093A4030C94B027E8EDF0E080818E7FBC
:1050100080831092E20008951092DA001092E1006D
:1050200008951F920F920FB60F9211242F933F9362
:105030004F935F936F937F938F939F93AF93BF93A0
:10504000EF93FF938091E10082FF0BC08091E2001B
:1050500082FF07C08091E1008B7F8093E1000E9476
:10506000812A8091DA0080FF1FC08091D80080FFE4
:105070001BC08091DA008E7F8093DA008091D90086
:1050800080FF0DC080E189BD82E189BD09B400FEC9
:10509000FDCF81E08093A5030E94592405C019BC6F
:1050A0001092A5030E9467248091E10080FF19C03F
:1050B0008091E20080FF15C08091E2008E7F809396
:1050C000E2008091E20080618093E2008091D8004C
:1050D00080628093D80019BC85E08093A5030E946C
:1050E0006B248091E10084FF30C08091E20084FF56
:1050F0002CC080E189BD82E189BD09B400FEFDCFED
:105100008091D8008F7D8093D8008091E1008F7EC0
:105110008093E1008091E2008F7E8093E200809195
:10512000E20081608093E2008091A103882311F066
:1051300084E007C08091E30087FD02C081E001C0E8
:1051400083E08093A5030E946C248091E10083FF9B
:1051500029C08091E20083FF25C08091E100877F14
:105160008093E10082E08093A5031092A1038091D7
:10517000E1008E7F8093E1008091E2008E7F80933A
:10518000E2008091E20080618093E20042E060E012
:1051900080E00E9410278091F00088608093F000EA
:1051A0000E946A24FF91EF91BF91AF919F918F91DF
:1051B0007F916F915F914F913F912F910F900FBE13
:1051C0000F901F9018951F920F920FB60F921124F7
:1051D0002F933F934F935F936F937F938F939F93FF
:1051E000AF93BF93CF93DF93EF93FF93C091E90009
:1051F000CF708091EC00D82FD17080FDD0E8109254
:10520000E9008091F000877F8093F00078940E94FD
:1052100027291092E9008091F00088608093F000C7
:10522000CD2BCF70C093E900FF91EF91DF91CF912B
:10523000BF91AF919F918F917F916F915F914F91AE
:105240003F912F910F900FBE0F901F9018951F93B5
:10525000CF93DF93CDB7DEB7AA970FB6F894DEBF32
:105260000FBECDBFE6EAF3E088E08E0F9091F1002B
:1052700091938E13FBCF0E9478248091E80083FFE6
:1052800028C18091A6039091A703492F50E04A308E
:10529000510508F01EC1FA01E556FF4F0C94B12AE2
:1052A000803821F0823809F014C108C08091A2032F
:1052B0009091A303992389F082600FC08091AA0383
:1052C0008F70873008F005C18093E9008091EB0072
:1052D00085FB882780F91092E9009091E800977F7C
:1052E0009093E8008093F1001092F100D0C0282F35
:1052F0002D7F09F0EEC0882319F0823061F0E9C0FB
:105300008091A803813009F0E4C0933009F080E077
:105310008093A3032EC08091A80381112AC080919D
:10532000AA038F702FEF280F263008F0D2C0809389
:10533000E9002091EB0020FF1CC0933021F4809104
:10534000EB00806214C09091EB0090619093EB00B1
:1053500021E030E0A90102C0440F551F8A95E2F711
:105360004093EA001092EA008091EB0088608093FD
:10537000EB001092E9008091E800877F8093E800BD
:105380000E944527A6C08111A4C01091A8031F77D1
:105390008091E3008078812B8093E3008091E80086
:1053A000877F8093E8000E9445278091E80080FF76
:1053B000FCCF8091E30080688093E300111102C06C
:1053C00082E001C083E08093A50383C080588230CF
:1053D00008F07FC08091A8039091A9038C3D53E011
:1053E000950779F583E08A838AE289834FB7F89439
:1053F000DE01139620E03EE051E2E32FF0E050930F
:105400005700E49120FF03C0E295EF703F5FEF701B
:105410008E2F90E0EA3010F0C79601C0C0968D93B1
:105420009D932F5F243149F74FBF8091E800877F1C
:105430008093E8006AE270E0CE0101960E944C265B
:1054400015C06091AA037091AB03AE014F5F5F4F2F
:105450000E947025BC01892BE1F19091E800977FB3
:105460009093E80089819A810E94AF268091E8009C
:105470008B778093E8002DC0803859F58091E80043
:10548000877F8093E8008091A1038093F100809151
:10549000E8008E7773CF81111CC09091A8039230E1
:1054A000C0F48091E800877F8093E8009093A10387
:1054B0000E9445278091A103811106C08091E300DD
:1054C00087FD02C081E001C084E08093A5030E94B3
:1054D0006E248091E80083FF0AC08091E800877FF6
:1054E0008093E8008091EB0080628093EB00AA96A5
:1054F0000FB6F894DEBF0FBECDBFDF91CF911F91E5
:1055000008950895CF938091A5038823A1F0C091B9
:10551000E900CF709091EC00892F817090FD80E8B8
:10552000C82B1092E9008091E80083FD0E94272992
:10553000CF70C093E900CF91089597FB072E16F422
:10554000009407D077FD09D00E94B72A07FC05D048
:105550003EF4909581959F4F0895709561957F4F8A
:105560000895EE0FFF1F0590F491E02D0994AA1BFA
:10557000BB1B51E107C0AA1FBB1FA617B70710F03E
:10558000A61BB70B881F991F5A95A9F78095909570
:10559000BC01CD010895FB01DC0104C08D91019097
:1055A000801921F441505040C8F7881B990B089589
:1055B0006817790768F4FB01DC01E40FF51FA40FFD
:1055C000B51F02C002900E9241505040D8F7089586
:1055D0000C94052DDC0101C06D9341505040E0F763
:1055E0000895FB01DC0101900D920020E1F7089580
:1055F000AEE0B0E0EEEFFAE20C94FF2D0D891E89CB
:105600008F89988D26E02C831A83098397FF02C027
:1056100080E090E801979E838D83AE01455E5F4FE9
:10562000698D7A8DCE0101960E94282B4D815E8175
:1056300057FD0AC02F813885421753070CF49A0191
:10564000F801E20FF31F10822E96E4E00C941B2E5B
:10565000ACE0B0E0EEE2FBE20C94F12D7C016B01DA
:105660008A01FC0117821682838181FFBDC1CE01B0
:1056700001964C01F7019381F60193FD859193FF0B
:1056800081916F01882309F4ABC1853239F493FD10
:10569000859193FF81916F01853229F4B70190E0E4
:1056A0000E94192DE7CF512C312C20E02032A0F49C
:1056B0008B3269F030F4803259F0833269F4206122
:1056C0002CC08D3239F0803339F4216026C022603D
:1056D000246023C0286021C027FD27C030ED380F8B
:1056E0003A3078F426FF06C0FAE05F9E300D1124B0
:1056F000532E13C08AE0389E300D1124332E2062C1
:105700000CC08E3221F426FD6BC1206406C08C369D
:1057100011F4206802C0883641F4F60193FD8591AA
:1057200093FF81916F018111C1CF982F9F7D955477
:10573000933028F40C5F1F4FFFE3F9830DC08336CD
:1057400031F0833771F0833509F05BC022C0F80176
:10575000808189830E5F1F4F44244394512C540150
:1057600015C03801F2E06F0E711CF801A080B18005
:1057700026FF03C0652D70E002C06FEF7FEFC5010B
:105780002C870E940E2D2C0183012C852F77222E31
:1057900017C03801F2E06F0E711CF801A080B180D3
:1057A00026FF03C0652D70E002C06FEF7FEFC501DB
:1057B0002C870E94FA2C2C012C852068222E830134
:1057C00023FC1BC0832D90E048165906B0F4B701A6
:1057D00080E290E00E94192D3A94F4CFF50127FC65
:1057E000859127FE81915F01B70190E00E94192DFC
:1057F00031103A94F1E04F1A51084114510471F7F5
:10580000E5C0843611F0893639F5F80127FF07C065
:1058100060817181828193810C5F1F4F08C060811C
:105820007181072E000C880B990B0E5F1F4F2F768E
:10583000722E97FF09C090958095709561957F4F66
:105840008F4F9F4F2068722E2AE030E0A4010E9403
:10585000512DA82EA81844C0853729F42F7EB22ECA
:105860002AE030E025C0F22FF97FBF2E8F36C1F03D
:1058700018F4883579F0B4C0803719F0883721F0F2
:10588000AFC02F2F2061B22EB4FE0DC08B2D8460CF
:10589000B82E09C024FF0AC09F2F9660B92E06C0FB
:1058A00028E030E005C020E130E002C020E132E035
:1058B000F801B7FE07C060817181828193810C5F1E
:1058C0001F4F06C06081718180E090E00E5F1F4F26
:1058D000A4010E94512DA82EA818FB2DFF777F2E22
:1058E00076FE0BC0372D3E7FA51450F474FE0AC01F
:1058F00072FC08C0372D3E7E05C0BA2C372D03C080
:10590000BA2C01C0B52C34FF0DC0FE01EA0DF11D0B
:105910008081803311F4397E09C032FF06C0B39410
:10592000B39404C0832F867809F0B39433FD13C079
:1059300030FF06C05A2CB31418F4530C5B18B32C68
:10594000B31468F4B70180E290E03C870E94192DFF
:10595000B3943C85F5CFB31410F43B1801C0312C3F
:1059600034FF12C0B70180E390E03C870E94192DFC
:105970003C8532FF17C031FD03C088E790E002C0CC
:1059800088E590E0B7010CC0832F867859F031FF8D
:1059900002C08BE201C080E237FD8DE2B70190E0EA
:1059A0000E94192DA51438F4B70180E390E00E94FD
:1059B000192D5A94F7CFAA94F401EA0DF11D8081B4
:1059C000B70190E00E94192DA110F5CF332009F402
:1059D00051CEB70180E290E00E94192D3A94F6CFA3
:1059E000F7018681978102C08FEF9FEF2C96E2E14D
:1059F0000C940D2EFC010590615070400110D8F7F9
:105A0000809590958E0F9F1F0895FB01DC0102C0C9
:105A100001900D9241505040D8F70895FC0161501B
:105A2000704001900110D8F7809590958E0F9F1FC0
:105A300008950F931F93CF93DF93FB01238121FDE3
:105A400003C08FEF9FEF28C022FF16C04681578109
:105A5000248135814217530744F4A081B1819D010F
:105A60002F5F3F4F318320838C93268137812F5FB7
:105A70003F4F3783268310C0EB01092F182F008476
:105A8000F185E02D0995892BE1F68E819F810196A4
:105A90009F838E83812F902FDF91CF911F910F9144
:105AA0000895FA01AA27283051F1203181F1E894B4
:105AB0006F936E7F6E5F7F4F8F4F9F4FAF4FB1E001
:105AC0003ED0B4E03CD0670F781F891F9A1FA11DFC
:105AD000680F791F8A1F911DA11D6A0F711D811DFD
:105AE000911DA11D20D009F468943F912AE0269FC2
:105AF00011243019305D3193DEF6CF010895462F21
:105B00004770405D4193B3E00FD0C9F7F6CF462F01
:105B10004F70405D4A3318F0495D31FD405241936A
:105B200002D0A9F7EACFB4E0A69597958795779527
:105B30006795BA95C9F700976105710508959B01AE
:105B4000AC010A2E06945795479537952795BA9537
:105B5000C9F7620F731F841F951FA01D0895F9993F
:105B6000FECF92BD81BDF89A992780B50895A8E12E
:105B7000B0E042E050E00C94E32D262FF999FECFDF
:105B800092BD81BDF89A019700B4021639F01FBA90
:105B900020BD0FB6F894FA9AF99A0FBE08950396AD
:105BA000272F0E94BE2D0E94BD2D252F0E94BE2DA5
:105BB000242F0C94BE2D0196272F0E94BE2D0C94ED
:105BC000BD2DDC01CB01FC01F999FECF06C0F2BD71
:105BD000E1BDF89A319600B40D9241505040B8F7AB
:105BE00008952F923F924F925F926F927F928F9281
:105BF0009F92AF92BF92CF92DF92EF92FF920F935C
:105C00001F93CF93DF93CDB7DEB7CA1BDB0B0FB665
:105C1000F894DEBF0FBECDBF09942A883988488822
:105C20005F846E847D848C849B84AA84B984C884B8
:105C3000DF80EE80FD800C811B81AA81B981CE0FAF
:105C4000D11D0FB6F894DEBF0FBECDBFED01089594
:045C5000F894FFCFF6
:105C54000105013B020000000139023B02053C0240
:105C64000139023A02000000054102FFFF808182EF
:105C7400838485868788898A8B8C8D8E8F90919278
:105C84009394A0A1A2A3A4A5A6A7A8A9AAABACADCE
:105C9400AEAFB0B1B2B3B4C0C1C2C3C4C5C6C7C845
:105CA400C9CACBCCCDCECFD0D1D2D3D400F8022820
:105CB40008140A321EF6232624FB23F923FA2301AF
:105CC40025730A00F6F7313332366697C634350049
:105CD400000000004C617965723A20446566617584
:105CE4006C74004C617965723A2052616973650085
:105CF4004C617965723A204C6F776572004C61791A
:105D040065723A2041646A757374004C61796572F6
:105D14003A20556E6465662D256C640025647825EB
:105D2400642C206B253264203A2025630020202037
:105D3400206162636465666768696A6B6C6D6E6F27
:105D4400707172737475767778797A313233343549
:105D54003637383930524542542020202020202024
:0A5D64003B27202C2E2F20202000CA
:00000001FF
